:020000040800F2
:10000000E804002005010008D5180008D1180008F0
:10001000D3180008450200088919000800000000F4
:10002000000000000000000000000000D9180008D7
:100030004702000800000000D7180008DB1800087D
:100040001F0100081F0100081F0100081F01000810
:100050001F0100081F0100081F0100081F01000800
:100060001F0100081F0100081F0100081F010008F0
:100070001F0100081F0100081F0100081F010008E0
:100080001F0100081F0100081F0100081F010008D0
:100090004D1900081F0100081F0100081F0100087A
:1000A0001F0100081F0100081F0100081F010008B0
:1000B0001F0100081F0100081F0100081F010008A0
:1000C0001F0100081F0100081F0100081F01000890
:1000D0001F0100081F0100081F0100081F01000880
:1000E0001F0100081F0100081F010008DFF810D0E1
:1000F00000F02CF800480047C9190008AFF3008051
:10010000E80400200648804706480047FEE7FEE76F
:10011000FEE7FEE7FEE7FEE7FEE7FEE7FEE7FEE7B7
:100120004B190008ED000008D2B201E000F8012BE5
:10013000491EFBD270470022F6E710B513460A4667
:1001400004461946FFF7F0FF204610BD064C074D48
:1001500006E0E06840F0010394E807009847103497
:10016000AC42F6D3FFF7C6FF8C1A0008AC1A0008A1
:1001700070B5044600688168C943C90717D1816812
:1001800021F00101816000F0ABFF05460AE000BFED
:1001900000F0A6FF401B022804D920688068C043F5
:1001A000C00706D020688068C043C007F0D0002098
:1001B00070BDA06A40F01000A062E06A40F001004B
:1001C000E062012070BD0000F8B5002604460096EC
:1001D00000688168C943C9072DD0816841F00101D9
:1001E0008160164816490068B0FBF1F000E0401E3F
:1001F00000900028FBD100F073FF054616E000BF19
:1002000000F06EFF401B022810D920688068C043B0
:10021000C0070BD0A06A40F01000A062E06A40F076
:100220000100E06284F824600120F8BD2068806845
:10023000C043C007E4D10020F8BD00002C0000201E
:1002400040420F00FEE770470EB5092000900120E4
:10025000019002906946024800F0F6F80EBD0000D9
:10026000B4000020154800B5816985B041F40071E3
:100270008161816901F400710491816941F0080193
:1002800081618069694600F00800049003200090B5
:1002900001900B4800F034FE0B480A49002201602F
:1002A000891581600121017302754FF46023C361D8
:1002B0004260016100F04AF905B000BD0010024043
:1002C000000C014000240140B400002030B5384843
:1002D00085B0C16941F00071C161C16901F000716F
:1002E0000491816941F0080181618069002400F076
:1002F000080004904FF48070CDE900042D4D69464C
:100300002846029400F0FCFD681500900220019040
:10031000032003906946284600F0F2FD2648416814
:1003200021F4C04141F0E06141F480414160244842
:10033000224901600421C0E901144FF41021C0E9F1
:1003400003414FF480014161047644768476C4769B
:100350000477447700F00CFD00221146142000F0D1
:100360002BFF142000F01AFF154800F095FD022124
:10037000134800F093FA1248082128304FF6E03273
:100380008460C0E903414FF4FD6101603430012114
:10039000446104610162C0E900248460C460C0E972
:1003A000061401465C3800F0F9FA05B030BD0000D3
:1003B00000100240000C01400000014000640040B9
:1003C000300000200EB5002002900820009001208F
:1003D00001906946014800F037F80EBDB4000020D6
:1003E00010B5FFF731FF094800F0DEF94FF47A71DC
:1003F000064800F03BF9054800F0A4F8044C608082
:10040000024800F031FA608810BD0000B4000020FE
:100410001C00002010B5FFF7D5FF094800F0C4F913
:100420004FF47A71064800F021F9054800F08AF887
:10043000044C2080024800F017FA208810BD00000C
:10044000B40000201C000020F8B50024009490F8AF
:1004500024202546012A12D0012280F824204A684F
:100460001F23072A0DD20668776B521E02EB820209
:1004700093409F430B6893401F43776319E002202A
:10048000F8BD06680D2A0AD2376BD21F02EB820232
:1004900093409F430B6893401F43376309E0F76A1B
:1004A0000D3A02EB820293409F430B6893401F4337
:1004B000F7620A68072306680A2A0AD3F7680A3A25
:1004C00002EB420293409F438B6893401F43F760C7
:1004D00008E0376902EB420293409F438B689340E8
:1004E0001F4337610A68102A01D0112A20D1124B0C
:1004F00002689A4217D193681B0219D4936843F497
:10050000000393600968102912D10C490C4A09684C
:10051000B1FBF2F101EB8101490000E0491E0091BD
:100520000029FBD104E0816A41F0200181620124AD
:1005300080F824502046F8BD002401402C00002003
:1005400040420F000068C06C704700002DE9F04188
:100550004FF0000704003D467ED0A06A002628B96F
:10056000E66284F82460204600F07EF82046FFF71B
:10057000FFFDA16AC90600D420B1A06A40F01000B6
:10058000A06269E0A16A21F4885141F00201A162F0
:100590006268E169237B0A4347EA43010A43A16891
:1005A0004FF48077B94209D0012907D05FF00001EC
:1005B00094F814C0BCF1010F02D00AE03946F7E705
:1005C000F3B1A36A43F02003A362E36A43F001039B
:1005D000E3622368D3F804C02CF4694C4CEA010CA4
:1005E000C3F804C021688B68DFF870C003EA0C030D
:1005F00013438B60A168B9420BD0012909D00CE0EC
:10060000DFF85CC0A3690CEB43330B4343F4006198
:10061000DFE7218A0D05A5F580152168CB6A23F453
:1006200070032B43CB62216889680E4B19409142BD
:1006300008D1E662A16A21F0020141F00101A16244
:10064000BDE8F081A06A20F0020040F01000A06236
:10065000E06A40F00100E0620120F1E7FDF7E1FF10
:1006600000E0FFFFFE0E1FFF704700002DE9F8437A
:1006700000270D460446009700F032FD80462068B2
:100680008168C90508D5A06A40F02000A06284F8FE
:1006900024700120BDE8F8834168C90503D4C06A0D
:1006A00010F4700F2AD0022000F0B8FD3B49096811
:1006B000B1FBF0F62068036939490B424FEA61014A
:1006C0004FEAA1121FD1C3684FEA611C13EA0C0F55
:1006D00019D103690B4225D1C068104222D11420E0
:1006E00023E0681C0AD02DB100F0FAFCA0EB080052
:1006F000A84203D920680068800725D520680068D3
:100700008007EED52DE003690B4202D1C16811428A
:1007100006D0026923490A4206D1C068084203D1C3
:10072000542002E0292000E0FC204643009816E017
:10073000681C11D02DB100F0D3FCA0EB0800A8423A
:100740000AD90098B04207D2A06A40F00400A06223
:1007500084F8247003209DE70098401C0090B0426C
:10076000E6D321686FF012000860A06A40F40070C0
:10077000A06220688068C0F3424007280CD1207B2B
:1007800050B9A06A20F48070A062A06AC00403D4AB
:10079000A06A40F00100A06200207BE72C0000204E
:1007A000244992244992240070B5044690F824000C
:1007B00001280DD0012084F824002046FFF704FD15
:1007C00002004FF0000005D084F82400104670BDF0
:1007D000022070BDA16A40F20123994341F4807167
:1007E000A1621F4D23681F49AB4218D10E6816F451
:1007F000702F14D0A66A46F48016A6620E6876059D
:1008000005D5A66A26F4005646F48056A662A66A66
:10081000F6040AD5E66A26F00606E66206E0A66A4F
:1008200026F48016A6625E68E9E7E06284F8240098
:100830006FF00200186020688368C3F34243072BFF
:1008400005D1A84208D1096811F4702F04D081683D
:1008500041F480118160B9E7816841F4A001F9E7B2
:10086000002801400424014010B5044690F82400FB
:10087000012807D0012084F824002046FFF778FCE7
:1008800010B107E0022010BDA16A21F4885141F0A7
:100890000101A162002184F8241010BD90F82020ED
:1008A000012A07D0022A05D0416A41F48021416221
:1008B00001207047006842690A4342610020704786
:1008C000F0B590F820500468A468012D05D0022DE1
:1008D00003D0416A41F480215DE014F0406F01D102
:1008E000E50055D5C4F30164022C03D9416A41F4F3
:1008F000000150E00125A5401D608D684FF4C073D4
:100900009DB1CE6835434E6845EAC605066803EBDF
:100910000417F5514FF4C275076805EB04150E690D
:100920007E51097D012905D009E00E88CD6845EA90
:100930004655EBE701684E5946F480764E511179E1
:10094000D579567941EA056195792D0445EA062560
:1009500029434FF4C676056806EB0416A9511178B1
:10096000D57841EA0561957852782D0445EA02224E
:1009700011434FF4C475026805EB0415515100682A
:1009800003EB0411425842F0010242500020F0BD36
:10099000416A41F4001141620120F0BD10B590F8A8
:1009A00020300268012B07D0022B05D0416A41F4A8
:1009B00080214162012010BDD2F8000240F0010008
:1009C000C2F80002087D00F01F0301209840D2F811
:1009D0001C328343C2F81C32CB69B3B9D2F80C3253
:1009E0008343C2F80C328C894B6864F31F434C6913
:1009F00002EBC404C4F840320C890B6864F31F4353
:100A00004C6902EBC404C4F84432CB69012B16D103
:100A1000D2F80C320343C2F80C320C884B6864F3F2
:100A20001F434C6902EBC404C4F840320C89CB6804
:100A300064F31F434C6902EBC404C4F844328B696D
:100A4000002BD2F804320FD053EA0003C2F804326C
:100A50000B69002BD2F8143208D00343C2F81432C9
:100A6000096A012904D008E08343EFE78343F5E7EF
:100A7000D2F81C120143C2F81C12D2F8000220F076
:100A80000100C2F80002002010BD704730B590F898
:100A90002040012C05D0022C03D0416A41F4802172
:100AA0005DE00468002955D02469A40754D04FF4B0
:100AB000D874056804EB01142D5915F004059560F0
:100AC00005682D594ED0ED08556005682C5904F085
:100AD0000204D4604FF4DA74056804EB01142D5954
:100AE00005F00F05156105682D59C5F307259561BA
:100AF00005682C59240C54614FF4DC72046802EB35
:100B00000112A4581C700468A458240A5C7004687C
:100B1000A458240C9C700468A258120EDA704FF48A
:100B2000DE72046802EB0112A4581C710468A45818
:100B3000240A5C710468A458240C9C710468A258AF
:100B4000120EDA71006881B1016941F02001016182
:100B5000002030BDE468A8E7416A41F40011416219
:100B6000012030BD6D0D1560AFE7C16841F0200177
:100B7000C160EDE72DE9F05F054600680024466995
:100B8000D0F804908768D0F80CB0D0F810A0D0F856
:100B90001880F10748D0F90714D001218160B80707
:100BA00003D5284600F0A5F90CE0780702D54FF4EC
:100BB000006407E0380702D54FF4805402E028466D
:100BC00000F096F9F80516D529684FF48070886012
:100BD000B80503D5284600F08EF90CE0780502D55B
:100BE00044F4005407E0380502D544F4804402E0A0
:100BF000284600F07FF9F80316D529684FF48030B5
:100C00008860B80303D5284600F077F90CE0780334
:100C100002D544F4004407E0380302D544F480349C
:100C200002E0284600F068F9300707D55FEACB609C
:100C300004D52968102044F40074C86070074FF090
:100C4000080707D55FEA0B7004D52868C7602846F7
:100C500000F01CF9B00706D52868C068800702D0EC
:100C6000284600F014F9700607D55FEACA6004D57B
:100C70002968102044F480640861B00607D55FEA53
:100C80000A7004D528680761284600F001F9F006CB
:100C900006D528680069800702D0284600F0F9F8D8
:100CA000B00308D55FEAC96005D5296810204860FF
:100CB000284600F0EFF8F00307D55FEA097004D585
:100CC00028684760284600F019F9300446D55FEAE5
:100CD000497040D5F00504D55FEAC87001D044F0F2
:100CE0000104B00504D55FEA887001D544F0020420
:100CF000700504D55FEA487001D544F0040430055E
:100D000029D518F0700F26D008F07000402815D0B3
:100D100006DC102809D020280AD0302816D10AE095
:100D200050280ED0602811D10EE044F008040DE0E8
:100D300044F010040AE044F0200407E044F04004CA
:100D400004E044F0800401E044F480742868816980
:100D500021F070018161296804204860002C05D0D1
:100D6000686A204368622846FFF78FFEBDE8F09F5F
:100D700070B5040003D094F8200010B104E0012005
:100D800070BD204600F081F82068016841F0010143
:100D9000016000F0A5F90546052604E000F0A0F981
:100DA000401B0A2811D820684068C007F6D0206888
:100DB000016821F00201016000F092F905460BE0A4
:100DC00000F08EF9401B0A2806D9606A40F4003012
:100DD000606284F82060D2E7206840688007EFD422
:100DE000207E0128206801683DD021F0800101604B
:100DF000607E01282068016838D021F04001016040
:100E0000A07E01282068016833D021F02001016014
:100E1000E07E0128206801682ED041F010010160B9
:100E2000207F01282068016829D021F00801016095
:100E3000607F01282068016824D021F0040101604E
:100E4000D4E902010843D4E904121143084361685C
:100E5000491E08432168C86100206062012084F8AF
:100E60002000002070BD41F08001C0E741F040014A
:100E7000C5E741F02001CAE721F01001CFE741F0BA
:100E80000801D4E741F00401D9E770477047704783
:100E9000704770477047000070B5044690F8200016
:100EA000012804D0606A40F40020606218E002204B
:100EB00084F820002068016821F00101016000F041
:100EC0000FF905460EE000BF00F00AF9401B0A28A2
:100ED00008D9606A40F400306062052084F8200080
:100EE000012070BD20684068C007EDD1606270BD10
:100EF00070477047704770477047704770470000F1
:100F00002DE9F84FDFF8B891002409F1040A0AF13D
:100F1000040B23460F270BF1040EC9E00125A54061
:100F20002A40AA427DD1674ED1F804C0ACEB060836
:100F3000B44532D014DCBCF1030F3AD009DCBCF16B
:100F4000000F2AD0BCF1010F1CD0BCF1020F31D12F
:100F50001DE0BCF1110F17D0BCF1120F2AD119E01E
:100F6000B8F5881F19D006DCB8F5803F15D0B8F564
:100F7000801F1FD111E0B8F5001F0ED0B8F5041F77
:100F800018D10AE0CB6815E0CB681B1D12E0CB68D6
:100F900008330FE0CB680C330CE08B682BB1012BCE
:100FA0004FF0080303D0456104E0042302E005612B
:100FB00000E00023FF2A01D8064601E000F1040604
:100FC0004FEA840501D9A5F12005D6F8008007FA7B
:100FD00005FC28EA0C0803FA05F548EA0508C6F8F6
:100FE00000804D68ED0062D5374DAE6946F00106D0
:100FF000AE61AD6924F0030605F001050095334D9F
:1010000006EB050CDCF80850A607360F07FA06F8C1
:1010100025EA0805DFF8B880404503D14FF0000805
:1010200017E044E0DFF8AC80404502D14FF0010802
:101030000FE0DFF8A480404502D14FF0020808E03D
:10104000DFF89880404502D14FF0030801E04FF0EF
:10105000040808FA06F848EA0508CCF808804D6844
:10106000D9F80060ED034D4601D5164300E09643E4
:101070002E604D68DAF80060AD03554601D5164381
:1010800000E096432E604D68DBF80060ED025D469F
:1010900001D5164300E096432E604D68DEF80060EF
:1010A000AD02754601D5164300E096432E60641CE0
:1010B0000D682A46E5407FF431AFBDE8F88F0000A7
:1010C0000004014000001110001002400000014027
:1010D00000080140000C01400010014000140140D4
:1010E00001488068704700002000002002488168A5
:1010F000027811448160704720000020074810B535
:10110000016841F010010160032000F075F8002033
:1011100000F006F800F024F8002010BD0020024086
:1011200070B50D4D04464FF47A712878B1FBF0F09C
:101130000A490968B1FBF0F000F0B6FB48B9102C81
:1011400007D200222146501E00F036F800206C60C5
:1011500070BD012070BD0000200000202C00002088
:101160000C4808B5816941F001018161816901F094
:1011700001010091C16941F08051C161C06900F075
:10118000805000900448416821F0E06141F0007116
:10119000416008BD0010024000000140002809DB4A
:1011A00000F01F02012191404009800000F1E02081
:1011B000C0F8001170470000F0B40E4B1B680C46DD
:1011C000C3F30223C3F10705042D00D90425191D1B
:1011D000072901D2002300E0DB1E012606FA05F1F3
:1011E000491E214099409E40761E16403143F0BC76
:1011F00000F0CBBB0CED00E0064900F007020868E8
:101200004FF6FF03184040EA0220034A10430860EB
:10121000704700000CED00E00000FA0510B529A4AD
:1012200001461DCC86B08DE81D002AA02A4C00681E
:1012300004900020012923D002293AD010291DD181
:1012400061682268D20119D5C1F38342C9031DF830
:10125000020009D5616804AAC1F34041515C1F4AEC
:10126000B2FBF1F1484301E01D494843616849027E
:1012700004D440005FF00301B0FBF1F006B010BDF4
:10128000226AC2F30121012903D1920701D5C803C3
:10129000F4E7022905D1626A920702D549F6404077
:1012A000ECE70329EAD121688903E7D54FF224400E
:1012B000E4E700F023F96168C1F38131491C49007A
:1012C000DAE7000002030405060708090A0B0C0D03
:1012D0000E0F1010010200000010024000127A00F0
:1012E00000093D002DE9F84305460078354CC0075C
:1012F00054D0E0690026C00008D4E06940F0805076
:10130000E061E069012600F0805000902E480168FD
:10131000C90512D40168804641F480710160FFF76D
:10132000DFFE074605E000BFFFF7DAFEC01B6428BA
:1013300023D8D8F80000C005F6D5206A10F4407014
:1013400021D0A98801F4407181421CD0206A1F4934
:10135000012220F440700A6000220A602062C00767
:1013600011D0FFF7BDFE074641F2883808E000BF04
:10137000FFF7B6FEC11B414502D90320BDE8F88343
:10138000206A8007F4D5206A696820F44070084319
:1013900020621EB1E06920F08050E061287880076B
:1013A00005D56068A96820F440400843606028784B
:1013B000C00605D56068E96820F4800008436060D5
:1013C0000020DBE700100240007000404004424271
:1013D0002DE9F0470F46050061D0434E306800F01C
:1013E0000700B84209D2306820F007003843306067
:1013F000306800F00700B84251D128683B4C8107A3
:1014000012D5400703D5606840F4E060606028783A
:10141000000703D5606840F4605060606068A968A8
:1014200020F0F000084360602878C00728D0686882
:10143000012810D02168022810D0890700292EDA4F
:10144000616821F0030101436160FFF749FE8046B6
:1014500041F288390DE021688903EFE78901EDE762
:10146000FFF73EFEA0EB0801494502D90320BDE885
:10147000F0876068696800F00C00B0EB810FEFD175
:10148000306800F00700B8420BD9306820F0070040
:1014900038433060306800F00700B84201D00120C6
:1014A000E5E72878400705D56068E96820F4E06042
:1014B000084360602878000706D56068296920F431
:1014C000605040EAC100606000F028F86168084A96
:1014D000C1F30311515CC840064908600648006822
:1014E000FFF71EFE0020C2E700200240001002406D
:1014F000741A00082C00002024000020044805492C
:1015000000684968044AC1F3C221515CC840704771
:101510002C00002000100240841A000812A185B09F
:101520000FC98DE80F0014A0144A00680490516898
:10153000134801F00C03042B10D0082B0ED1C1F37B
:101540008343C9031DF803000AD5516804AAC1F3F7
:101550004041515C0A4A5043B0FBF1F005B070477E
:1015600008494843FAE70000020304050607080992
:101570000A0B0C0D0E0F10100102000000100240AB
:1015800000127A0000093D002DE9F84F040070D0E8
:101590002078C04DC00749D06868C0F38100012899
:1015A00007D06868C0F38100022809D16868C003C9
:1015B00006D52868800339D560680028E7D035E073
:1015C0006068B0F5803F0BD010B1B0F5A02F11D0FE
:1015D000286820F480302860286820F4802002E009
:1015E000286840F480302860606890B1FFF778FD8B
:1015F00006460AE0286840F480202860F0E700BF33
:10160000FFF76EFD801B642873D828688003F7D528
:101610000CE0FFF765FD064605E000BFFFF760FD43
:10162000801B6428F0D828688003F7D420789A4E6D
:1016300080074FF001094FF0000839D5686810F0B5
:101640000C0F07D06868C0F38100022809D16868D0
:10165000C00306D42868800714D52069012808D162
:1016600010E02069B0B1C6F80090FFF739FD0746D9
:1016700005E00AE1FFF734FDC01B0228C4D8286842
:101680008007F7D52868616920F0F80040EAC100BA
:1016900028600DE0C6F80080FFF722FD074604E051
:1016A000FFF71EFDC01B022823D828688007F7D447
:1016B000207800072CD57948A169D9B1C0F80090ED
:1016C000FFF70EFD074604E0FFF70AFDC01B0228E6
:1016D0000FD8686A8007F7D571484FF4FA5100684F
:1016E000B0FBF1F0009000BF0098411E0091FAD2CB
:1016F0000EE080E0C0F80080FFF7F2FC074604E04F
:10170000FFF7EEFCC01B022875D8686A8007F7D483
:101710002078400760D5E8690027C00008D4E86950
:1017200040F08050E861E869012700F080500090A7
:101730005C480168C90513D40168834641F480718F
:101740000160FFF7CDFC824606E000BFFFF7C8FC52
:10175000A0EB0A0064284ED8DBF80000C005F5D5E0
:10176000E06801280AD008B1052813D0286A20F0C3
:1017700001002862286A20F0040002E0286A40F094
:1017800001002862E06841F2883B98B1FFF7A8FCAD
:1017900082460BE0286A40F004002862EEE700BFB2
:1017A000FFF79EFCA0EB0A0159455AD8286A80072A
:1017B000F6D50CE0FFF794FC824605E0FFF790FCBD
:1017C000A0EB0A0159454CD8286A8007F6D41FB10E
:1017D000E86920F08050E861E06988B36968C1F386
:1017E0008101022944D00228C6F8608004D0FFF7A6
:1017F00077FC044638E034E0FFF772FC074604E06B
:10180000FFF76EFCC01B02282BD828688001F7D494
:10181000206AB0F5803F05D16868A16820F40030E7
:1018200008436860D4E908010843696821F4741129
:1018300008436860C6F86090FFF752FC044606E073
:1018400025E000BFFFF74CFC001B022809D82868E0
:101850008001F7D51BE000BFFFF742FC001B022808
:1018600002D90320BDE8F88F28688001F4D40EE087
:101870000128F7D06868226A00F48031914204D1CF
:10188000616A00F47010884201D00120EAE700206C
:10189000E8E700000010024000004242800442429B
:1018A0002C0000200070004010B5401EB0F1807F79
:1018B00001D3012010BD4FF0E02460610F216017BB
:1018C00000F063F80020A06107202061002010BD17
:1018D000FEE7FEE7FEE770477047FFF707BC30B54D
:1018E00093B028216846FEF726FC14210AA8FEF7CB
:1018F00022FC002401200F941094119401041294EE
:101900008DE813000490CDE9081402250795684678
:10191000FFF73AFE08B172B6FEE70F200A90CDE954
:101920000B540D9400210AA80E94FFF751FD08B145
:1019300072B6FEE70FA80F951194FFF7D3FC0028AD
:1019400001D072B6FEE713B030BD704710B50C4839
:10195000FFF710F90A4A0B4B403200210848FFF705
:1019600095F8084CA0780D2801D100F067F8A07810
:101970000C2803D1BDE8104000F040B810BD0000B5
:101980003000002014000020FEE70907090E00289F
:1019900004DB00F1E02080F80014704700F00F0035
:1019A00000F1E02080F8141D704702E008C8121F03
:1019B00008C1002AFAD170477047002001E001C138
:1019C000121F002AFBD17047FFF798FBFFF787FF34
:1019D000FEF77CFCFEF746FC074C00BFFEF71AFD45
:1019E000A080010A21706070FEF7FAFCE080010A15
:1019F000A170E070F2E70000000000200B48042115
:101A000002460170412141700C218170084909781A
:101A1000C170084909780171AA2141718171C171B0
:101A20000549031FA1F12800FEF74ABF0C00002062
:101A30000200002003000020580000200A48032173
:101A400002460170412141700D21817007490978DA
:101A5000C170AA21017141718171C1710449031FD3
:101A6000A1F12800FEF72CBF0C000020010000208F
:101A700058000020000000000000000001020304E4
:101A8000060708090000000001020304AC1A000860
:101A90000000002030000000AA190008DC1A00082D
:101AA00030000020B8040000BA190008000000004F
:101AB0000000000000000000000000000000000026
:101AC0000000000000000000000000000100000015
:0C1AD00010000000000000000024F400E2
:04000005080000ED02
:00000001FF
